:020000040800F2
:10000000E8170020210200084B1F000875170008A0
:10001000491F00088B050008A1240008000000000B
:10002000000000000000000000000000890100083E
:100030008D05000800000000CD010008F51F000834
:100040003B0200083B0200083B0200083B0200089C
:100050003B0200083B0200083B0200083B0200088C
:100060003B0200083B0200083B0200083B0200087C
:100070003B0200083B0200083B0200083B0200086C
:100080003B0200083B0200083B0200083B0200085C
:100090003B0200083B0200083B0200083B0200084C
:1000A0003B020008812000083B0200083B020008D8
:1000B0003B0200083B020008000000003B02000871
:1000C0003B02000800000000000000003B020008A6
:1000D000000000003B0200083B0200080000000096
:1000E0003B0200083B0200083B02000800F002F857
:1000F00000F03AF80AA090E8000C82448344AAF188
:100100000107DA4501D100F02FF8AFF2090EBAE885
:100110000F0013F0010F18BFFB1A43F0010318473B
:100120002474000044740000103A24BF78C878C1D9
:10013000FAD8520724BF30C830C144BF04680C60ED
:10014000704700000023002400250026103A28BF35
:1001500078C1FBD8520728BF30C148BF0B60704739
:100160001FB51FBD10B510BD00F0DAF91146FFF73D
:10017000F7FF03F0F3FC00F0F8F903B4FFF7F2FF28
:1001800003BC00F0FBF90000224B19680868B0E8D6
:10019000F00F80F30988BFF36F8F4FF0000080F3FA
:1001A00011884EF00D0E70470000000006480068F0
:1001B000006880F3088862B661B6BFF34F8FBFF363
:1001C0006F8F00DF00BF00BF08ED00E0EFF3098094
:1001D000BFF36F8F0F4B1A6820E9F00F106008B55E
:1001E0004FF0500080F31188BFF34F8FBFF36F8F34
:1001F00004F020FF4FF0000080F31188BDE80840B4
:1002000019680868B0E8F00F80F30988BFF36F8FB2
:10021000704700BFB0000020EFF30580704700007A
:100220000948804709480047FEE7FEE7FEE7FEE78A
:10023000FEE7FEE7FEE7FEE7FEE7FEE704480549C6
:10024000054A064B704700007D200008ED000008BD
:10025000E8110020E8170020E8130020E813002030
:1002600010B54C1084EA530404D54042C1F100019A
:1002700038BF491E1B4204D55242C3F1000338BFA8
:100280005B1E00F0A1F814F0804F04D04042C1F191
:10029000000138BF491E14F0004F04D05242C3F190
:1002A000000338BF5B1E10BD40EA010310B59B0779
:1002B0000FD1042A0DD310C808C9121F9C42F8D0D0
:1002C00020BA19BA884201D9012010BD4FF0FF3081
:1002D00010BD1AB1D30703D0521C07E0002010BD97
:1002E00010F8013B11F8014B1B1B07D110F8013B23
:1002F00011F8014B1B1B01D1921EF1D1184610BD04
:1003000010B5203AC0F00B80B1E81850203AA0E8B0
:100310001850B1E81850A0E81850BFF4F5AF5FEAE4
:10032000027C24BFB1E81850A0E8185044BF18C997
:1003300018C0BDE810405FEA827C24BF51F8043B3E
:1003400040F8043B08BF7047D20728BF31F8023B92
:1003500048BF11F8012B28BF20F8023B48BF00F826
:10036000012B704702F0FF0343EA032242EA0242F4
:1003700000F0AEB84FF0000200B513469446964622
:10038000203922BFA0E80C50A0E80C50B1F12001A8
:10039000BFF4F7AF090728BFA0E80C5048BF0CC056
:1003A0005DF804EB890028BF40F8042B08BF7047B4
:1003B00048BF20F8022B11F0804F18BF00F8012B26
:1003C000704770477047704753EA020C00F069802D
:1003D0002DE9F04B4FF00006002B1FBFB3FA83F559
:1003E00003FA05F424FA05F65E4012BF1643B2FA8A
:1003F00082F502FA05F4C5F120051EBF22FA05FCBC
:1004000044EA0C04203556EA044C4FEA144418BF61
:10041000641C4FF000084FF00009904271EB030C90
:1004200039D3002919BFB1FA81F701FA07F6B0FAFA
:1004300080F700FA07F6C7F120071EBF20FA07FC75
:1004400046EA0C062037B6FBF4FCA7EB0507103F85
:1004500007F01F0BCBF120060CFA0BFB2CFA06F66B
:1004600044BFB3460026202FA4BF5E464FF0000BCA
:100470005BEA060C08BF4FF0010B19EB0B09ABFB55
:10048000027C48EB0608C01B06FB02CC0BFB03CC2E
:1004900071EB0C01C1E70B46024641464846BDE8F8
:1004A000F08B13B54FF000004FF00001AFF3008068
:1004B000BDE81C40704710B500F02AF8006810BD78
:1004C00010B5044600F024F8046010BD4FF000029F
:1004D0000429C0F0128010F0030C3FF44DAFCCF1B2
:1004E000040CBCF1020F18BF00F8012BA8BF20F8C4
:1004F000022BA1EB0C01FFF73FBF5FEAC17C24BFD9
:1005000000F8012B00F8012B48BF00F8012B7047C1
:10051000004870478811002000487047881100206B
:100520007546FFF7F9FFAE4605006946534620F0D1
:100530000700854618B020B5FFF780FEBDE82040D3
:100540004FF000064FF000074FF000084FF0000B8F
:1005500021F00701AC46ACE8C009ACE8C009ACE842
:10056000C009ACE8C0098D46704710B50446AFF32A
:1005700000802046BDE81040FFF7FFBD014918206C
:10058000ABBEFEE7260002007047FEE7704772B67A
:10059000FEE7000070B5044600F0F4F80546601C64
:1005A00002D004480078044400F0ECF8401BA0425C
:1005B000FAD370BDA00000202DE9F84FDFF8949128
:1005C0000024A9F1040B23464FF00F0809F1040A97
:1005D000ABF1040EB7E00127A7403A40BA4272D10E
:1005E000DFF874C14D68A5EB0C0665452BD00DDC1A
:1005F000032D34D005DC35B3012D19D0022D2FD1B8
:100600001BE0112D16D0122D2AD119E0B6F5881F46
:1006100019D006DCB6F5803F15D0B6F5801F1FD186
:1006200011E0B6F5001F0ED0B6F5041F18D10AE090
:10063000CB6815E0CB681B1D12E0CB6808330FE0D8
:10064000CB680C330CE08B682BB1012B4FF0080307
:1006500003D0476104E0042302E0076100E00023C7
:10066000FF2A01D8064601E000F104064FEA84059E
:1006700001D9A5F12005376808FA05FC27EA0C071F
:1006800003FA05F547EA050737604D68ED0059D5CF
:10069000324DAE6946F00106AE61AD6924F0030645
:1006A00005F0010500952E4D7719BE68A5072D0FA1
:1006B00008FA05FC26EA0C06DFF8A8C0604503D15D
:1006C0004FF0000C10E03DE0DFF89CC0604502D127
:1006D0004FF0010C08E0DFF894C0604502D14FF004
:1006E000020C01E04FF0030C0CFA05FC4CEA060C7E
:1006F000C7F808C04D68D9F80060ED024D4601D535
:10070000164300E096432E604D68DAF80060AD02B3
:10071000554601D5164300E096432E604D68DBF840
:100720000060AD035D4601D5164300E096432E60A0
:100730004D68DEF80060ED03754601D5164300E014
:1007400096432E60641C0A6832FA04F57FF443AFC6
:10075000BDE8F88F080401400000111000100240AD
:100760000000014000080140000C01400010014061
:100770008068084000D0012070470AB101617047CD
:100780000904FBE70148806870470000A0000020D2
:1007900070B5040025D094F83D00002520B984F8F8
:1007A0003C50204600F0B8F8242084F83D00206832
:1007B000016821F0010101602068016841F40041F5
:1007C00001602068016821F40041016000F052FAE4
:1007D0004D4B6168994201D84C4900E04C49884230
:1007E00001D2012070BD4B492268B0FBF1F156687F
:1007F00026F03F060E43566062689A4206D94FF4CF
:10080000967251434FF47A72B1FBF2F12268491C9F
:10081000166A26F03F06314311626168994210D88A
:100820004900401EB0FBF1F2521CC2F30B02042A35
:1008300001D2042022E0B0FBF1F0401CC0F30B0019
:100840001CE0A268F2B301EBC10303EB0116431EE7
:10085000B3FBF6F35B1C43F480431B0549D092B312
:1008600001EBC10202EB0111401EB0FBF1F0401C94
:10087000C0F30B0040F4804040F400402168CA6996
:100880004CF6FF739A431043C861D4E90710014343
:100890002068026822F0C00211430160D4E903011C
:1008A00001432068826848F2FF339A431143816014
:1008B000D4E9051001432068C26822F0FF02114309
:1008C000C16001E00EE016E02068016841F001011E
:1008D00001602564202084F83D00256384F83E50A3
:1008E000002070BD01EB4106431EB3FBF6F35B1C19
:1008F000B3E70120C2E701EB4101401EB0FBF1F07C
:10090000401CC0F30B00B7E7A086010080841E00E6
:1009100000093D0040420F0010B586B00021009153
:1009200001910291039100680F4988421AD10F4C3E
:10093000A06940F00800A061A069694600F00800C5
:100940000490C020009012200190032003900848DA
:10095000FFF732FEE06940F40010E061E06900F466
:100960000010049006B010BD00540040001002407A
:10097000000C014002488168027811448160704790
:10098000A0000020074810B5016841F01001016087
:10099000032000F0A1F80F2000F006F800F04AF85C
:1009A000002010BD0020024030B505461C4887B02D
:1009B000816941F400618161806905A900F40060EA
:1009C0000690684600F036F900F064F91549164AB9
:1009D000B0FBF1F11548491E026040F2E732C260F7
:1009E00000220261C0E90112826100F047FB0400AD
:1009F00012D10E4800F08EFB04000DD1192000F03A
:100A00003DF8102D07D200222946192000F044F8A5
:100A10000748056000E0012407B0204630BD000013
:100A20000010024040420F00002C01405004002002
:100A3000A40000200F4808B5816941F001018161DF
:100A4000816901F001010091C16941F08051C161EA
:100A5000C069002200F0805000900F21901E00F02D
:100A60001BF80549486820F0E06040F000704860DD
:100A700008BD00000010024000000140002809DB12
:100A800000F01F02012191404009800000F1E020A8
:100A9000C0F8001170470000F0B40E4B1B68C3F3A0
:100AA0000223C3F10704042C00D904241D1D072DC3
:100AB00001D2002300E0DB1E012606FA04F56D1EBC
:100AC0000D409D409E40761E164045EA0601F0BC52
:100AD00001F0FBBC0CED00E0064A00F007011068D5
:100AE0004FF6FF03184040EA012003490843106015
:100AF000704700000CED00E00000FA052DE9F0471A
:100B00000D46040067D0DFF81881D8F8000000F027
:100B10000700A8420CD2D8F8001021F007012943A1
:100B2000C8F80010D8F8000000F00700A84252D121
:100B300020683C4E810712D5400703D5706840F409
:100B4000E06070602078000703D5706840F4605062
:100B500070607068A16820F0F00008437060207831
:100B6000C00727D06068012810D03168022810D053
:100B7000890700292FDA716821F0030101437160B0
:100B8000FFF700FE074641F288390CE0316889031F
:100B9000EFE78901EDE7FFF7F5FDC11B494502D9F4
:100BA0000320BDE8F0877068616800F00C00B0EBCE
:100BB000810FF0D1D8F80010404601F00701A9429A
:100BC0000BD9016821F0070129430160006800F09A
:100BD0000700A84201D00120E3E72078400705D5AF
:100BE0007068E16820F4E0600843706020780007D6
:100BF00006D57068216920F4605040EAC100706039
:100C000000F058F87168084AC1F30311515CC840FC
:100C10000649086006480068FFF7C6FE0020C0E7E6
:100C2000002002400010024032740008AC00002096
:100C3000A40000200F2202600C4A536803F0030353
:100C40004360536803F0F0038360536803F4E06388
:100C5000C36052684FF4E06303EAD20202610448C1
:100C6000006800F0070008607047000000100240B4
:100C7000002002400448054900684968044AC1F35D
:100C80000221515CC8407047AC00002000100240B7
:100C9000427400080448054900684968044AC1F3E1
:100CA000C221515CC8407047AC00002000100240D7
:100CB000427400080E4B59680E4801F00C02042AD9
:100CC00011D0082A0FD10C48C1F38342C903805CBC
:100CD0000AD55968084AC1F34041921E515C054A41
:100CE0005043B0FBF1F0704704494843704700009F
:100CF0000010024000127A002274000800093D0032
:100D00002DE9F84F04006FD02078BE4DC00747D0C2
:100D10006868C0F38100012807D06868C0F38100CB
:100D2000022809D16868C00306D52868800337D532
:100D300060680028E7D033E06068B0F5803F0BD0F2
:100D400010B1B0F5A02F11D0286820F480302860B1
:100D5000286820F4802002E0286840F48030286071
:100D6000606888B1FFF70EFD064609E0286840F488
:100D700080202860F0E7FFF705FD801B642873D80A
:100D800028688003F7D50BE0FFF7FCFC064604E07B
:100D9000FFF7F8FC801B6428F1D828688003F7D49B
:100DA0002078DFF8648280074FF0010A4FF00009D5
:100DB00039D5686810F00C0F07D06868C0F381005F
:100DC000022809D16868C00306D42868800714D5B2
:100DD0002069012808D110E02069B0B1C8F800A04E
:100DE000FFF7D0FC064605E007E1FFF7CBFC801BD0
:100DF0000228C4D828688007F7D52868616920F0E0
:100E0000F80040EAC10028600DE0C8F80090FFF744
:100E1000B9FC064604E0FFF7B5FC801B022823D886
:100E200028688007F7D4207800072CD57748A16977
:100E3000D9B1C0F800A0FFF7A5FC064604E0FFF713
:100E4000A1FC801B02280FD8686A8007F7D570487C
:100E50004FF4FA510068B0FBF1F0009000BF009829
:100E6000411E0091FAD20EE07CE0C0F80090FFF73E
:100E700089FC064604E0FFF785FC801B022871D838
:100E8000686A8007F7D4207840075BD5E8690027B7
:100E9000C00008D4E86940F08050E861E8690127A3
:100EA00000F0805000905B480168C90511D40168CA
:100EB000834641F480710160FFF764FC064604E05C
:100EC000FFF760FC801B64284CD8DBF80000C005ED
:100ED000F6D5E06801280AD008B1052813D0286AA1
:100EE00020F001002862286A20F0040002E0286A4D
:100EF00040F001002862E06841F2883B88B1FFF7CA
:100F000041FC064609E0286A40F004002862EEE74A
:100F1000FFF738FC811B59455BD8286A8007F7D555
:100F20000BE0FFF72FFC064604E0FFF72BFC811BCC
:100F300059454ED8286A8007F7D41FB1E86920F0D8
:100F40008050E861E069A8B36968C1F381010229B2
:100F500046D00228484606D0C8F86000FFF712FCC9
:100F6000044639E035E04746C8F86000FFF70AFC60
:100F7000064604E0FFF706FC801B022829D82868F3
:100F80008001F7D4206AB0F5803F05D16868A16878
:100F900020F4003008436860D4E908010843696818
:100FA00021F4741108436860C7F860A0FFF7EAFBFA
:100FB000044605E023E0FFF7E5FB001B022808D804
:100FC00028688001F7D51AE0FFF7DCFB001B022838
:100FD00002D90320BDE8F88F28688001F4D40EE020
:100FE0000128F7D06868226A00F48031914204D168
:100FF000616A00F47010884201D00120EAE7002005
:10100000E8E7000000100240000042428004424233
:10101000AC000020007000407047704770B590F839
:101020003C20012A23D0012580F83C50022280F880
:101030003D2002685368966823F070040B682343D0
:1010400053600C4B02689A4205D0B2F1804F02D037
:10105000094B9A4204D1496826F0800319439160F4
:1010600080F83D50002180F83C10084670BD0220F9
:1010700070BD0000002C01400004004010B50400C9
:1010800003D094F83D0010B107E0012010BD00200E
:1010900084F83C00204600F01FF8022084F83D0050
:1010A000211D206800F0F2FF012084F8460084F83A
:1010B0003E0084F83F0084F8400084F8410084F842
:1010C000420084F8430084F8440084F8450084F822
:1010D0003D00002010BD000008B500680B49B0F1CC
:1010E000804F0BD00A4A904207D1C86940F00200F5
:1010F000C861C86900F00200009008BDC86940F0EE
:101100000100C861C86900F00100F5E70010024065
:101110000004004090F83D10012901D001207047E3
:10112000022180F83D100168CA6842F00102CA60DD
:1011300000680A49884205D0B0F1804F02D00849C2
:10114000884204D1816801F00701062903D00168B3
:1011500041F001010160002070470000002C0140B7
:101160000004004070B5044690F83C0000250128BA
:1011700017D0012684F83C60022084F83D002068E6
:10118000826822F0770222F47F4282600868502849
:1011900038D00DDC20284FD005DC90B3102811D1B9
:1011A0004AE0022070BD302846D040280AD13BE0FA
:1011B00060282FD070280DD0B0F5805F03D0B0F537
:1011C000005F12D0012584F83D60002084F83C00C7
:1011D000284670BDCB68D1E90121206800F099FF55
:1011E0002068816841F0770109E0CB68D1E90121ED
:1011F000206800F08EFF2068816841F480418160A2
:10120000E1E719E0CA684968206801F03DF850211B
:10121000206806E0CA684968206801F046F8602145
:10122000206800F080FFCEE7CA684968206801F0B6
:101230002BF840212068F4E7226801461046F0E7C9
:1012400070472DE9F04104460068C66805694FF013
:101250000007A90713D5B10711D5F91E01610120B7
:101260002077206880698007204602D0FFF7E8FFDA
:1012700004E000F0B1F8204600F043F92777680752
:1012800016D5700714D521686FF00400086102209C
:1012900020772068806910F4407F204602D0FFF755
:1012A000CFFF04E000F098F8204600F02AF92777F5
:1012B000280715D5300713D521686FF0080008619D
:1012C000042020772068C0698007204602D0FFF7FD
:1012D000B7FF04E000F080F8204600F012F927770D
:1012E000E80616D5F00614D521686FF010000861E5
:1012F000082020772068C06910F4407F204602D083
:10130000FFF79EFF04E000F067F8204600F0F9F8D0
:101310002777E80708D0F00706D021686FF00100B2
:101320000861204600F03AF9280608D5300606D5AF
:1013300021686FF0800008612046FFF76DFE6806A7
:1013400008D5700606D521686FF040000861204678
:1013500000F02EF9A8060AD5B00608D521686FF06E
:10136000200008612046BDE8F041FFF756BEBDE809
:10137000F081000010B586B000210091019102912A
:1013800003910168114A02231148B1F1804F13D033
:10139000104CA1420ED1916941F004019161916913
:1013A00001F0040104914021CDE900136946039343
:1013B000FFF702F906B010BD916941F00401916197
:1013C000916901F0040104910321EDE7001002404E
:1013D0000008014000040040704770B5044690F8D2
:1013E0003C0000260D4601280FD0012084F83C0067
:1013F0006AB1042A1DD0082A2FD00C2A3FD001261A
:10140000002084F83C00304670BD022070BD20688A
:1014100000F092FE2068816941F008018161206836
:10142000816921F004018161206881692A69114381
:1014300011E0206800F0ACFE2068816941F4006191
:1014400081612068816921F48061816120688169FE
:101450002A6941EA02218161D2E7206800F0C6FED4
:101460002068C16941F00801C1612068C16921F0AB
:101470000401C1612068C1692A69114311E0206833
:1014800000F0E0FE2068C16941F40061C16120689C
:10149000C16921F48061C1612068C1692A6941EA9A
:1014A0000221C161ACE710B5040003D094F83D00FF
:1014B00010B107E0012010BD002084F83C00204658
:1014C00000F01EF8022084F83D00211D206800F085
:1014D000DDFD012084F8460084F83E0084F83F00DA
:1014E00084F8400084F8410084F8420084F8430006
:1014F00084F8440084F8450084F83D00002010BDC5
:101500007047704710B5044649B104290AD008292C
:101510000BD094F8410001280AD0012010BD94F8A6
:101520003E00F8E794F83F00F5E794F84000F2E752
:10153000022029B3042926D0082927D084F84100A5
:101540000122206800F0D8FD12492068884203D1AA
:10155000426C42F4004242642068884205D0B0F1F7
:10156000804F02D00C49884204D1816801F0070104
:10157000062903D0016841F001010160002010BD7F
:1015800084F83E00DCE784F83F00D9E784F84000A7
:10159000D6E70000002C0140000400400068034929
:1015A000884201D1FFF7E6B970470000002C0140E6
:1015B000704770B5040004D094F84100002510B1C4
:1015C00006E0012070BD84F84050204600F024F869
:1015D000242084F841002068C16821F40051C160D2
:1015E000204600F0C9FE2068016921F490410161A4
:1015F0002068416921F02A0141612068C16841F4F5
:101600000051C1606564202084F8410084F84200E4
:101610006563002070BD000070B586B000240094A2
:101620000194029403940068224E2349022203236A
:10163000224DB04219D1886940F4804088618869A0
:1016400000F480400490886940F004008861886953
:10165000039300F0040004904815CDE900026946A8
:101660002846FEF7A9FF28151BE0154EB0421FD1F2
:10167000C86940F40030C861C86900F400300490C3
:10168000886940F0040088618869694600F00400B8
:1016900004900420CDE9000203932846FEF78CFF56
:1016A0000820CDE90004694628460294FEF784FF2D
:1016B00006B070BD00380140001002400008014033
:1016C000004400402DE9F84F044690F84200984647
:1016D00015460E46202802D00220BDE8F88FBEB184
:1016E000B5B100206064222184F842102063FFF726
:1016F00049F8A5858246E585A0684FF480574FF0EC
:101700002009B84201D1206920B13546002628E0E1
:101710000120E2E7002524E0534600222021204654
:10172000CDF8008000F084FE18B184F842900320C8
:10173000D3E725B1A068B84219D038B108E02068D5
:101740004068C0F3080026F8020B07E0206970B17A
:101750002068406800F07F0005F8010BE08D401E16
:10176000E085E08D0028D7D184F84290B5E7206865
:101770004068F1E7FEE7000010B50E4C0022802122
:101780002046FEF7FAFF00F017F80122402120461C
:10179000FEF7F3FF00F010F8002240212046FEF78C
:1017A000ECFF00F009F820460122BDE8104080213E
:1017B000FEF7E3BF000C01400020401CC0B20A2825
:1017C000FBD370470C4800B5816985B041F0080132
:1017D00081618069694600F008000490C020009093
:1017E00003200390112001900448FEF7E5FE00F06D
:1017F0009DF805B000BD000000100240000C014043
:1018000010B50C4C012280212046FEF7B6FFFFF7F1
:10181000D3FF012240212046FEF7AFFFFFF7CCFFA8
:10182000002240212046FEF7A8FFBDE81040FFF748
:10183000C3BF0000000C01402DE9F0410024134E0D
:10184000074625466006040E012240213046FEF779
:1018500094FFFFF7B1FF80213046FEF789FF08B102
:10186000641CE4B2002240213046FEF786FFFFF7F9
:10187000A3FF6D1CEDB2082DE4D327B1FFF77CFF69
:101880002046BDE8F081FFF7BBFFF9E7000C0140FF
:1018900070B5154E05460024280601D5012200E04A
:1018A000002280213046FEF768FFFFF785FF012206
:1018B00040213046FEF761FFFFF77EFF0022402106
:1018C0003046FEF75AFF072C04D101228021304612
:1018D000FEF753FF6806050EFFF76EFF641CE4B2C7
:1018E000082CD9D370BD0000000C014010B50E4C7F
:1018F000012280212046FEF740FF012240212046A0
:10190000FEF73BFFFFF758FF002280212046FEF73D
:1019100034FFFFF751FF002240212046FEF72DFF44
:10192000BDE81040FFF748BF000C014010B50A4C5D
:10193000002280212046FEF720FF01224021204680
:10194000FEF71BFFFFF738FF20460122BDE81040DD
:101950008021FEF712BF0000000C014070B5104D51
:10196000012280212846FEF708FFFFF725FF01220C
:1019700040212846FEF701FFFFF71EFF8021284681
:10198000FEF7F6FE08B1012400E000240022402109
:101990002846FEF7F2FEFFF70FFF204670BD00005D
:1019A000000C01407CB514460D4606466B460622E7
:1019B0003B21682000F080F800280BD1BDF8001012
:1019C00049BA3180BDF8021049BA2980BDF8041027
:1019D00049BA21807CBD7CB514460D4606466B464F
:1019E00006224321682000F067F800280BD1BDF8DB
:1019F000001049BA3180BDF8021049BA2980BDF8FB
:101A0000041049BA21807CBD10B5FFF7DBFE8021B0
:101A10006B2000F0BFF86420FEF7BCFD00216B20B6
:101A200000F0B8F8032000F081F8002000F079F809
:101A3000322000F098F80021382000F0ABF80021A7
:101A40006A2000F0A7F80021232000F0A3F88021ED
:101A5000372000F09FF8752000F011F8682801D0B9
:101A6000012010BD01216B2000F094F800216C20B2
:101A700000F090F8322000F076F8002010BD10B58C
:101A80000446FFF733FFD020FFF702FFFFF766FFA2
:101A90002046FFF7FDFEFFF761FFFFF727FFD1208C
:101AA000FFF7F6FEFFF75AFF0020FFF7C5FE0446DA
:101AB000FFF73CFF204610BD2DE9F0411C461546BE
:101AC0000F460646FFF712FF7006000EFFF7E0FE16
:101AD000FFF744FF20B1FFF729FF0120BDE8F081A7
:101AE0003846FFF7D5FEFFF739FFFFF7FFFE01206D
:101AF00000EB4600C0B2FFF7CBFEFFF72FFF08E078
:101B0000012D0CD00120FFF797FE6D1E04F8010B8C
:101B1000EDB2002DF4D1FFF709FF0020DEE7002031
:101B2000F1E7C006010E1C2000F034B8C006010E1B
:101B30001B2000F02FB8BC2801D3012110E062283F
:101B400001D302210CE02A2801D3032108E0142844
:101B500001D3042104E00A2801D3052100E0062175
:101B60001A2000F017B810B504464FF47A7084427A
:101B700001D9044602E0042C00D20424B0FBF4F0A6
:101B8000401EC1B2192000F005F86008BDE8104001
:101B9000FFF7D1BF70B50C460546FFF7A7FED02072
:101BA000FFF776FEFFF7DAFE50B92846FFF770FE22
:101BB000FFF7D4FE2046FFF76BFEFFF7CFFE18B10C
:101BC000FFF7B4FE012070BDFFF7B0FE002070BD2E
:101BD0002DE9F0411D4616460C460746FFF786FEE6
:101BE0007806000EFFF754FEFFF7B8FE60B92046F6
:101BF000FFF74EFEFFF7B2FE00240CE0285DFFF772
:101C000047FEFFF7ABFE20B1FFF790FE0120BDE8D5
:101C1000F081641CE4B2B442F0D3FFF787FE0020E9
:101C2000F5E7000010B5B2B01C2227496846FEF760
:101C300067FB0021684602F0BDFD244C22491C22AE
:101C4000E0621C3107A8FEF75BFB002107A802F049
:101C5000B1FD1D4920631C2238310EA8FEF750FB50
:101C600000210EA802F0A6FD174960631C22543122
:101C700015A8FEF745FB002115A802F09BFD1249AF
:101C8000A0631C2270311CA8FEF73AFB00211CA89F
:101C900002F090FD0C49E0631C228C3123A8FEF772
:101CA0002FFB002123A802F085FD074920641C2298
:101CB000A8312AA8FEF724FB00212AA802F07AFD09
:101CC000606432B010BD00005C7300085800002052
:101CD00070B586B000241C480094019402940394CB
:101CE000816941F010018161816901F01001049165
:101CF000816941F020018161816901F02001049135
:101D0000816941F004018161816901F0040104915C
:101D1000816941F0080181618069012200F00800B9
:101D20000A4E5503049029463046FEF726FD012051
:101D30000095CDE901040220039069463046FEF784
:101D40003BFC06B070BD00000010024000100140D6
:101D50000D4810B50B4901600C49416000214FF45A
:101D600080428160C0E9031241618161C161016209
:101D7000FEF70EFD002803D0BDE81040FEF707BCBB
:101D800010BD000000540040DC020020801A060054
:101D900010B58EB000240794089409940A940B940B
:101DA0001C2168460C94FEF7E5FA23484FF0804169
:101DB000016040F2CF21C0E9011440F2CF71C0E9C7
:101DC000031480218161FFF759F908B1FEF7DFFBA9
:101DD0004FF48050079007A91748FFF7C3F908B1DF
:101DE000FEF7D5FB1448FFF75EFB08B1FEF7CFFB0B
:101DF0000B940BA910480C94FFF710F908B1FEF7EB
:101E0000C6FB6020CDE900040294002269460A481E
:101E10000494FFF7E2FA08B1FEF7B9FB0422694621
:101E20000548FFF7DAFA08B1FEF7B1FB0248FFF701
:101E3000A1FA0EB010BD00003003002010B58EB026
:101E400000240794089409940A940B941C21684672
:101E50000C94FEF78FFA1F481D4901604721C0E925
:101E6000011440F2E731C0E9031480218161FFF7DA
:101E700005F908B1FEF78BFB4FF48050079007A9D6
:101E80001448FFF76FF908B1FEF781FB1148FFF71F
:101E90000AFB08B1FEF77BFB0B940BA90D480C94D1
:101EA000FFF7BCF808B1FEF772FB6020CDE9000433
:101EB00002940022694607480494FFF78EFA08B19D
:101EC000FEF765FB0348FFF755FA0EB010BD0000A2
:101ED00000040040780300200C4810B50A49016056
:101EE0004FF416514160002181600C22C160C0E9AD
:101EF00004128161C161FFF75CFB002803D0BDE8DB
:101F00001040FEF744BB10BD00380140C003002064
:101F10000C4810B50A4901604FF4E13141600021DD
:101F200081600C22C160C0E904128161C161FFF7C8
:101F300040FB002803D0BDE81040FEF728BB10BDD1
:101F40000044004008040020FEE7FEE72DE9F041D0
:101F50000B46C568044605611146184604F0C6FAEA
:101F600007462946E06004F0C1FAA16804F0C0F910
:101F700005463846216804F0BBF9064638466168D4
:101F800004F0B6F9616903F0E1FF6061A16904F052
:101F90007BFAA06908D380F00040616904F074FA0C
:101FA00003D2A06980F0004060612946304603F00A
:101FB000CDFF616903F0CAFFE061216A04F064FAB1
:101FC000206A08D380F00040E16904F05DFA03D292
:101FD000206A80F00040E061BDE8F08130B5DDE9C5
:101FE00003450562846180E80E0030BD012002F0E7
:101FF000D5FBFBE710B5502080F31188BFF34F8F5E
:10200000BFF36F8F03F0F2F818B104494FF080501E
:102010000860002080F3118810BD000004ED00E08E
:1020200030B58FB028216846FEF7A4F914210AA81C
:10203000FEF7A0F90120010400248DE813000490AC
:102040004FF4E010CDE90810022507956846FEF729
:1020500057FE08B172B6FEE70F20CDE90A054FF42E
:102060008060CDE90C4002210AA80E94FEF746FDDF
:10207000002801D072B6FEE70FB030BD70470000F7
:102080000148FFF7DEB800005004002070B5026878
:10209000174C184D4FF08046A04203D0B04201D0FB
:1020A000A84203D122F070034A681A43A04203D029
:1020B000B04201D0A84203D122F44073CA681A4347
:1020C0004B6922F080021A4302608A68C2620A6881
:1020D0008262A04201D10969016301214161016964
:1020E000C90703D0016921F00101016170BD000041
:1020F000002C01400004004010B501F01F01012335
:10210000046A8B409C430462036A8A40134303625F
:1021100010BD10B5846842EA032224F47F440A43C8
:102120002243826010BD826822F070020A4342F0AE
:10213000070181607047000030B5026A036A23F02E
:10214000010303624368846924F073050C682C431F
:1021500022F002058A682A430C4DA84206D122F0DB
:102160000805CA6842EA050222F0040207D14D6957
:1021700023F4407345EA03058B6943EA0503436092
:10218000846149684163026230BD0000002C014057
:1021900030B5036A026A22F0100202624268846962
:1021A0000D6824F4E64444EA05248D6823F02003F6
:1021B00043EA05130C4DA84206D1CD6823F08003F5
:1021C00043EA051323F0400307D14D6922F440622E
:1021D00042EA85028D6942EA85024260846149686B
:1021E0008163036230BD0000002C014030B5026AFB
:1021F000036A23F4807303624368C46922F40072A3
:1022000024F073050C682C438D6842EA05220C4DBE
:10221000A84206D1CD6822F4006242EA052222F4E7
:10222000806207D14D6923F4405343EA05138D6959
:1022300043EA05134360C4614968C163026230BD6B
:10224000002C014030B5046A026A22F48052026216
:102250004268C3690D6823F4E64343EA05238D68A9
:1022600024F4005444EA0534064DA84204D14D69D3
:1022700022F4804242EA85124260C36149680164E7
:10228000046230BD002C014010B5046A036A23F0DB
:1022900001030362836923F0F00343EA021324F08D
:1022A0000A020A438361026210BD10B5036A046A20
:1022B00024F010040462846923F0A00324F4704421
:1022C00044EA023243EA01118261016210BD00005A
:1022D000124D134CA87A03281BD101230A2210495E
:1022E0001048FFF7EFF9217864204143607800EB54
:1022F000800001EB4000A17808442872E178642056
:102300004143207900EB800001EB400061790844F3
:102310006872012002F042FADCE700005800002059
:10232000500100200804002001680C3151E8002F02
:1023300022F4907241E80023002BF5D1016814319A
:1023400051E8002F22F0010241E80023002BF5D1D3
:10235000016B012909D101680C3151E8002F22F0ED
:10236000100241E80023002BF5D1202180F8421013
:10237000002101637047000070B5044600680169E0
:10238000E26821F4405111430161A16820690143D1
:10239000606901432068C26841F20C639A430A43B2
:1023A000C26020684169A26921F440711143416112
:1023B0001E492068884202D1FEF76CFC01E0FEF75E
:1023C00059FC00EBC00101EB001160686422800041
:1023D000B1FBF0F3B3FBF2F36FF018067343B1FBFC
:1023E000F0F5B1FBF0F605EB8305322303EB0515A1
:1023F000B5FBF2F5B6FBF2F605F0F00505EB0615B8
:10240000B1FBF0F6B1FBF0F0B0FBF2F06FF01801A9
:10241000484306EB800003EB0010B0FBF2F02168AC
:1024200000F00F002844886070BD000000380140B3
:102430002DE9F8431F4690460D460446089E23E0CA
:10244000701C21D0FEF79EF9C01BB0421AD8CEB145
:102450002068C168490717D5802D15D0402D13D0AD
:102460000168C94309070FD401680025406800903E
:102470002046FFF759FF0820606484F8405001208F
:10248000BDE8F8830320FBE72068006835EA000018
:1024900004D000204045D3D00020F1E70120F9E727
:1024A000FEE7490050EAC12018BF04204A0D18BFBA
:1024B00040F0010040F2FF72B2EB515F08BF40F004
:1024C0000200012808BF052070470907090E0028EF
:1024D00004DB00F1E02080F80014704700F00F00EA
:1024E00000F1E02080F8141D70472DE9F0414F1EE7
:1024F00000EBC7010446D1E9000115461E4637F03E
:1025000006020DD02A46334603F072F97F1E04EB13
:10251000C703D3E9002302F063FF37F00602F1D1CD
:10252000022F25D0042F13D0062F18BFBDE8F0814D
:102530002A46334603F05CF9D4E90A2302F050FF3F
:102540002A46334603F054F9D4E9082302F048FF41
:102550002A46334603F04CF9D4E9062302F040FF43
:102560002A46334603F044F9D4E9042302F038FF45
:102570002A46334603F03CF9D4E9022302F030FF47
:102580002A46334603F034F9D4E90023BDE8F0418C
:1025900002F026BF012204F050B802F021BF002251
:1025A00013461046114602F0CBBF0000024A00203D
:1025B000110704F042B8000001FDFFFF2DE9FE4FB6
:1025C00080460F460025684601F01EF800246FF093
:1025D0000F0AE946012658F8240057F82410401A3B
:1025E00000D5404203F024FE514604F054F859F857
:1025F000241011F0FF4F0BD003F01CFD4FF07E5163
:1026000003F074FF094920F00040884205DC07E030
:10261000074908440749884202D306FA04F00543F3
:10262000641C032CD7DB2846BDE8FE8F295C0F3ED7
:10263000666666C19A99D9002DE9F84F04460D46A1
:1026400021F0004000917349814211DC72498842B7
:1026500001DC06D12CB120462946BDE8F84FFFF732
:1026600099BF6E48002DCCBF6D496E49BDE8F88F0B
:102670006D49814211DD6D498142D8BF4FF0FF366F
:102680006DDD20462946FFF70CFF042808BFFFF741
:102690008DFF20462946BDE8F88F6549654F25F036
:1026A0000045814233DD6449814219DD002632460E
:1026B0004FF080432046294602F092FE80468A462B
:1026C00001222046294603F0B8FF00223B4603F0D2
:1026D00027FB4246534602F033FF04460D463EE0D8
:1026E00001260022BA463B462046294602F078FEE3
:1026F00080460F46002253462046294603F010FB31
:1027000042463B4602F01CFF04460D4627E04B497B
:1027100081421BDDDFF828A1022600225346204615
:10272000294603F065F800223B4602F059FE804638
:102730000F46002253462046294603F0F1FA42464E
:102740003B4602F0FDFE04460D4608E00326224605
:102750002B4600203B4902F0F3FE04460D4622467C
:102760002B461046194603F043F88B468246024634
:102770000B4603F03DF807460246334888460B46B1
:1027800006217844FFF7B1FE52465B4603F030F86D
:1027900082462E488B463A46434605217844FFF749
:1027A000A4FE3A46434603F023F802460B46002EA9
:1027B000504659460CDA02F013FE22462B4603F02F
:1027C00017F801B022462B46BDE8F04F03F0B6B92A
:1027D00002F006FE22462B4603F00AF81C4A7A4411
:1027E00002EBC603D3E9002303F09AFA22462B46F4
:1027F00003F096FA174A7A4402EBC603D3E90023A2
:1028000003F09CF9009A002AB8BF81F00041BDE8AE
:10281000F88F0000000010440000F07F182D445491
:10282000FB21F93FFB21F9BF0000DC3F0000203E07
:102830000000F33F0000F03F0000E63F008003404F
:102840000000F83F0000F0BF324D0000F04C0000E7
:102850008E4C0000564C00002DE9F04D9446CCF112
:10286000000423F000464CEA0404524F46EAD474B4
:102870009A46884621F00042BC4206D8454240EACA
:10288000050442EAD474BC4204D9BDE8F04D624666
:10289000FFF783BEAAF14055A5F17F6555EA0C0408
:1028A0000BD0022404EAAA74434DDFF810E144EA95
:1028B000D87452EA000B04D00CE0BDE8F04DFFF7ED
:1028C000BBBE002C14BF012CBDE8F08D022C30D013
:1028D000032C32D056EA0C0B0AD0BE4220D1BA42A9
:1028E00009D126F0804622F080423346114617E097
:1028F00000291ADB25E0DFF8C8B0FB44002C04BF38
:10290000DBE90001BDE8F08D012C02BFDBE900012D
:1029100081F00041BDE8F08D022C0AD0032C0CD0D0
:10292000BA4212D1B8F1000F0BDA23482549BDE8AD
:10293000F08D28462449BDE8F08D28467146BDE853
:10294000F08D1D482149BDE8F08D921B12153C2ADF
:10295000C4BF19481D490EDCBAF1000FBEBF12F109
:102960003C0F0020014606DB624602F0E9FD21F043
:102970000041FFF761FE002C08BFBDE8F08D012C7F
:1029800004BF81F00041BDE8F08D114A114B022CCB
:1029900007D003F0C5F92A46BDE8F04D0A4B03F015
:1029A000BFB903F0BDF92A46BDE8F04D064B03F070
:1029B000C5B800000000F07F182D4454FB2109C069
:1029C000EA4B0000FB21F9BFFB210940FB21F93F45
:1029D000075C143326A6A13C2DE9F05F594DB5F9EB
:1029E000000003F025FC6FF00E0103F054FE0421FB
:1029F00003F051FE8046B5F9020003F019FC6FF0B8
:102A00000E0103F048FE042103F045FE8146B5F9AE
:102A1000040003F00DFC6FF00E0103F03CFE0421F6
:102A200003F039FE0746014603F062FC04464946BE
:102A3000084603F05DFC214603F088FA03F05AFAD9
:102A400002F0A6F904460E4688F0004003F052FA60
:102A500022463346FFF700FFDFF8EC8000224346B2
:102A600002F0C6FEDFF8E4A0DFF8E4B052465B46B1
:102A700002F066FD02F082FCA860384603F03AFAE4
:102A800004460E46484603F035FA22463346FFF721
:102A9000E3FE0022434602F0ABFE52465B4602F0E4
:102AA0004FFD02F06BFCE860B5F9060003F0C0FBD7
:102AB0006FF00E0103F0EFFD264903F019FC2649E3
:102AC00003F016FC696903F041FA686103F012FA39
:102AD0000022224B00F04EFD02F050FC204F6861B6
:102AE00010F1FF4F03D3394603F030FA6861002438
:102AF0001C49686903F0FCFB214603F027FA2861B2
:102B0000194EA96946F821000520491C91FBF0F2F5
:102B100000FB1210A8610020044656F8241003F0B0
:102B200015FA641C052CF8DB104903F083FA1049F0
:102B30002861884203DD394603F0D8FC2861BDE8EE
:102B4000F09F00003800002000806640182D44549B
:102B5000FB2109400000FA440AD7233D008076405B
:102B60000000B44348E17A3F280100200000A04063
:102B70000000344310B55A2000F020F86FF05900DF
:102B800000F01CF83C2000F019F86FF03B0000F05A
:102B900015F81E2000F012F86FF01D0000F00EF87E
:102BA0000449522008700448022181724FF4FA71DE
:102BB000816210BD3C01002058000020034996307E
:102BC0008871C8714FF4FA70FDF7E4BC580000201A
:102BD0000126144D144C02274FF003084FF004094E
:102BE0004FF0000A642305220E491048FEF76AFDE3
:102BF000287872280BD052280BD06D280BD067286C
:102C00000CD084F80AA0012001F0C8FDEAE7A67202
:102C1000F9E7A772F7E784F80A80F4E784F80A90E6
:102C2000F1E700003C01002058000020C003002014
:102C30003C4CDFF8FC800420A0723B493B4A002654
:102C4000D8F800004FF01E0AE2254FF40007884232
:102C500001DC9042FBD3DFF8DCB0DFF8DC90E670FB
:102C6000A6702671D8F80030E361DBF800202262FC
:102C7000D9F800106162A07A012806D0022841D05C
:102C8000032807D0042813D03CE0FFF773FFE67059
:102C9000A67037E0207A5038C11700EB9170800899
:102CA000A070607A03213C3890FBF1F0E07029E0DD
:102CB000504684F805A0B94202DBA070E57001E03F
:102CC000A570E07014206071A078BB4204DB143062
:102CD000A070E078143803E01438A070E078143065
:102CE000E0700A206071A078BA4204DB0A30A0705C
:102CF000E0780A3803E00A38A070E0780A30E07023
:102D000064202071A0789630A071E0789630E07150
:102D1000207900EB400000F5FA70A062012001F07C
:102D20003DFD9CE758000020ACC52737ACC527B750
:102D300040000020480000204400002008B560B199
:102D400020208DF8000028208DF8010030208DF81B
:102D5000020038208DF8030004E0A3220421684615
:102D6000FDF700FB6A46042140F69E2001F0ECFCD2
:102D700001F0B0F908BD00003EB5044602208DF810
:102D80000000CA208DF80100E3208DF80200092020
:102D90008DF803006A460421682001F0D5FCA320C9
:102DA0008DF80000610609D5C0218DF80110C821F9
:102DB0008DF80210C2218DF8031005E08DF8010096
:102DC0008DF802008DF8030014F4C07F09D0C421EF
:102DD0008DF80410CC218DF80510C6218DF8061051
:102DE00005E08DF804008DF805008DF806008DF8DB
:102DF00008008DF807008DF809006A460A2140F6A0
:102E0000A72001F0A1FCA0074FF0D80503D0202097
:102E10008DF8000001E08DF800506A46012140F66F
:102E2000B62001F091FCA00601D5012000E00020B1
:102E300000F090F814F4C07F1ED0E0050AD5B2204F
:102E40008DF800008B208DF80100B6208DF802006F
:102E50009B2009E0B0208DF8000080208DF8010053
:102E6000B4208DF8020090208DF803006A460421FA
:102E700040F6A22001F068FCE0074FF40B6323D07A
:102E8000F8208DF800006A460121184601F05CFC2C
:102E9000FA21072000F096FA072000F061FA0120DD
:102EA00000F07EFA642000F021FB4FF4FA7000F08D
:102EB0002DFBC821254800F01BFA282000F030FA2D
:102EC0000A2000F03DFA06E08DF800506A46012124
:102ED000184601F039FCA00703D5D9208DF8000071
:102EE00001E08DF800506A46012140F23D7001F08A
:102EF0002BFC600701D5012000E0002000F046F81F
:102F0000E00601D5012000E00020FFF717FF104D7B
:102F100044F00800688101F0DDF80020A873600625
:102F200001D50620A87314F4C07F02D0A87B801DB1
:102F3000A87314F0140F02D0A87B1030A873A00758
:102F400002D0A87B001DA87300203EBD09E3CA0281
:102F5000180100200EB54FF4976308B105A000E0FA
:102F600007A007C88DE807006A460921184601F046
:102F7000EBFB0EBDB8AAB38DB4980D355D00000013
:102F8000B8AAAAAAB088C3C5C700000008B560B136
:102F9000C0208DF80000C2208DF80100C4208DF8FB
:102FA0000200C6208DF8030004E08B22042168464D
:102FB000FDF7D8F96A46042140F6982001F0C4FBD9
:102FC00001F088F808BD0000C8234FF48062024970
:102FD00040F6F63000F0A6BF646700082DE9FF4117
:102FE000044603A800F086FEBDF80C00420CC303A3
:102FF0002F48018901F003004D0754F8200000D547
:103000004042C1F3C1058E0654F8255000D56D42EB
:10301000C1F38116C90554F8264000D56442A0FBCF
:103020000367C11701FB037100FB0210810041EA35
:103030009670A5FB0367E91701FB037105FB0211FD
:103040008D0045EA9671A4FB0367E51705FB037342
:1030500004FB0232930043EA9672030E8DF80030AF
:10306000030C8DF80130030A8DF802308DF803004F
:10307000080E8DF80400080C8DF80500080A8DF87C
:103080000600100E8DF80800100C8DF80900100ACB
:103090008DF80A008DF807108DF80B206A460C2178
:1030A0004FF4257001F050FB04B0BDE8F081000042
:1030B0001801002030B5044613A185B007C98DE87A
:1030C00007004FF0FF35C82C16D8C820B0FBF4F12C
:1030D000491E080A8DF80C008DF80D1003AA022174
:1030E00040F2162001F030FB30B96A460C2140F660
:1030F000C12001F029FB10B1284605B030BD0548BC
:1031000084810020F9E70000FEF2ABC4AAF1DFDF02
:10311000BBAFDFDF18010020F8B53049098901F0A5
:10312000030250F822404A0700D56442C1F3C102AD
:1031300050F822308A0600D55B42C1F3811250F864
:103140002220C80500D55242254984FB0140850054
:1031500045EA947083FB014382FB0121950F45EA08
:103160008105010E8DF80010010C8DF80110010A87
:103170008DF80210A40F8DF8030044EA83046A4618
:1031800004214FF4747001F0DFFA4FF0FF3688B974
:10319000200E8DF80000200C8DF80100200A8DF81B
:1031A00002008DF803406A4604214FF4757001F067
:1031B000CBFA08B13046F8BD280E8DF80000280C77
:1031C0008DF80100280A8DF802008DF803506A4638
:1031D00004214FF4767001F0B7FAF8BD1801002011
:1031E00009E3CA022DE9FF4104463CA002AB006896
:1031F00002903BA0006803903AA006683AA00568D8
:1032000004F00300195C8DF80010C4F3C1015A5C8E
:103210008DF80120C4F381129B5C8DF8023003AB62
:10322000185C8DF80400585C8DF80500985C8DF8EA
:1032300006006A46032140F2264001F085FA4FF06D
:10324000FF37E0BB01AA032140F22A4001F07CFADB
:10325000A8BBCDE9006560070BD59DF8000040F0E4
:1032600001008DF800009DF8040040F001008DF889
:103270000400A0060BD59DF8010040F001008DF878
:1032800001009DF8050040F001008DF80500E00503
:103290000BD59DF8020040F001008DF802009DF86A
:1032A000060040F001008DF806006A4603214FF445
:1032B000886001F049FA10B901AA032100E004E096
:1032C00040F2314001F040FA18B1384604B0BDE890
:1032D000F081064804810020F8E700004CCD6C0026
:1032E0000CC92C00365676002646660018010020D0
:1032F0004FF47A7290FBF2F008B54843010E8DF856
:103300000010010C8DF80110010A8DF802108DF8E3
:1033100003006A4604214FF4AE7001F015FA08BDAF
:103320000521B0FBF1F008B5010A8DF800108DF809
:1033300001006A4602214FF4AD7001F005FA08BDA4
:103340000521B0FBF1F008B5010A8DF800108DF8E9
:1033500001006A4602214FF4AC7001F0F5F908BD96
:1033600008B500218DF80010C10702D030218DF87A
:103370000010810705D59DF8001041F00C018DF873
:103380000010400705D59DF8000040F003008DF8BF
:1033900000006A4601214FF4A47001F0D5F908BD80
:1033A00008B560B1042800D90420401E8DF8000043
:1033B0006A46012140F24F1001F0C6F908BD012014
:1033C000F3E700002DE9FC41054640074FF0FF36CA
:1033D0007CD0B1F5C86F79D8084602F041FF3E496C
:1033E00002F028FE074601A800F066FC9DF80400E4
:1033F000022806D004280DD008282ED0102865D128
:1034000034E00E21384603F046F902F0F1FE84B2B2
:10341000324907E00D21384603F03DF902F0E8FE9D
:103420002F4984B2384602F063FF02F0E1FE210A20
:103430008DF8001080B28DF80140010A8DF802105D
:103440008DF80300E8076C4620D0224602214FF495
:10345000EA7001F079F9C8BB11E00C21384603F09D
:103460001AF902F0C5FE84B21E49DBE70B2138468B
:1034700003F011F902F0BCFE84B21B49D2E7A21C92
:1034800002214FF4927001F05FF9F8B9A8070DD549
:103490006A4602214FF4EC7001F056F9B0B9A21C53
:1034A00002214FF4947001F04FF978B9680710D5F4
:1034B0006A4602214FF4EE7001F046F930B9A21CC1
:1034C00002214FF4967001F03FF910B13046BDE88B
:1034D000FC810020FBE7000000004843000040465C
:1034E0000000C045000040450000C0440521B0FB7D
:1034F000F1F008B5010A8DF800108DF801006A4658
:1035000002214FF4EF7001F01FF908BD0521B0FB57
:10351000F1F008B5010A8DF800108DF801006A4637
:1035200002214FF4ED7001F00FF908BD0F4C4FF47C
:10353000FA700F4EE0604FF42F750027A062A0696B
:103540000A2802DA401CA06105E0A761A06A401CBD
:10355000A06200E0E5603168A06A48630120FDF7E1
:1035600019F8A06AA842EAD3F4E700005800002046
:103570007803002070B514461D460E46002814BF7F
:1035800001210021314321F00041C1F17F6101F1AE
:10359000E041C90F16D1002C14BF0121002129439D
:1035A00021F00041C1F17F6101F1E041C90F09D172
:1035B0001449B1EB460F08BF00281CD0690008BFB2
:1035C000002C18D0314602F00BFA024640F2FF7090
:1035D00030EA11500DD0F017B0EBE17F09D008466A
:1035E00065F31E0084460B462046614602F0A6FAAB
:1035F0000246104670BD0120FCF762FFBDE8704036
:10360000FEF7CDBF0000E0FF2DE9FC470546254849
:103610006B46042240680D210078FEF74DFA10B188
:103620000720BDE8FC879DF800001C2101EAD002BC
:103630009DF80300DFF87090C0F301131A438DF872
:1036400004209DF80120C0F3810301EAD2021A434D
:103650008DF805209DF8022000F0030001EAD20158
:1036600001430024114F8DF80610A04601AE305DD5
:1036700010B145F8249009E045F824800CE055F895
:103680002400394602F034FE45F82400305D401E27
:1036900010F0FF003055F2D1641CE4B2032CE6D3E5
:1036A0000020BEE7000000207B14AE3E1D5A843F80
:1036B0002DE9FE4F05460120C14E8DF800004FF068
:1036C00000088DF8018030680C461746817C7068D0
:1036D0006B4602220078FEF77BFA4FF0FF3A002893
:1036E0007AD1C820FCF756FF8DF8008030686B4611
:1036F0000122C17B70680078FEF76AFA0028EFD1DA
:1037000030686B460122417970680078FEF760FAF4
:103710000028E5D130686B460122817C7068007812
:10372000FEF756FA0028DBD130686B460122C17DD6
:1037300070680078FEF74CFA0028D1D130686B46EB
:103740000122017970680078FEF742FA0028C7D19B
:103750004FF00C098DF8009030686B46012201791A
:1037600070680078FEF734FA002835D10F20FCF796
:1037700011FFB06A6B460122407A8DF80000306874
:10378000817870680078FEF723FA002824D1B06AA7
:103790006B460122007A8DF800003068417870682D
:1037A0000078FEF715FA002873D1B06A807A0FB15D
:1037B00040F0E0008DF8000030686B46012281790E
:1037C00070680078FEF704FA002862D12FB1B06A61
:1037D000C07A40F0E00001E04AE018208DF80000D7
:1037E00030686B460122C17970680078FEF7F0F905
:1037F000F0BB17B1C820FCF7CDFE40208DF80000CB
:1038000030686B460122017970680078FEF7E0F9B4
:1038100070BB78208DF8000030686B46012241793A
:1038200070680078FEF7D4F910BB3220FCF7B2FEC6
:103830008DF80080306847466B46417970680122F8
:103840000078FEF7C5F998B931687068B046897A92
:1038500000786B460222FEF72FF948B9BDF8000048
:10386000AF6040BAB0FBF9F06F60C6B22F6000E005
:103870000FE0A76067602760002739E0D8F80010E4
:10388000D8F804006B46C97A00780C22FEF714F9C8
:1038900010B15046BDE8FE8FBDF80000236840BA65
:1038A00002B2BDF802001A4440BA01B2BDF80400E9
:1038B0002260626840BA11446160A16800B20844A5
:1038C000A060BDF806002B6840BA02B2BDF808003F
:1038D0001A4440BA01B2BDF80A002A606A6840BAC8
:1038E00011446960A96800B208447F1CFFB2A86057
:1038F000B742C3D328688322C117090441EA1041A3
:1039000000040023FCF7ACFC32460023FCF7A8FCC3
:10391000286068688322C117090441EA1041000445
:103920000023FCF79DFC32460023FCF799FC6860FD
:10393000A8688322C117090441EA1041000400234A
:10394000FCF78EFC32460023FCF78AFCA860206856
:103950004FF40065C117090441EA104100042A46EA
:103960000023FCF77DFC32460023FCF779FC206045
:1039700060682A46C117090441EA10410004002387
:10398000FCF76EFC32460023FCF76AFC6060A0681E
:103990002A46C117090441EA104100040023FCF73C
:1039A0005FFC32460023FCF75BFCA060002802DDD0
:1039B000A0F5803001E000F58030A060002069E7CC
:1039C000000000202DE9F84F82462F488946002547
:1039D00040686B46032200780D21FEF76DF810B1A8
:1039E0000720BDE8F88F9DF80000002400F01F00BC
:1039F0008DF800009DF801006F4600F01F008DF863
:103A000001009DF802004FF0010800F01F008DF842
:103A100002005AF8241059F82400081A00D5404230
:103A200002F006FC6FF00F0102F035FE0646385D2D
:103A3000E0B1164ADFF858B004E05946104602F0EB
:103A400057FC0246385D401E10F0FF003855F4D197
:103A50001146304602F0EEFA4FF07E5102F046FD7C
:103A60000C4920F00040884205DC07E00A48304459
:103A7000B0F1D97F02D908FA04F00543641C032C85
:103A8000C7DB2846ADE70000000000200000C84169
:103A900054E3853F295C0F3E0000E0BE0D4C6420DE
:103AA000E071A0710C4A0D490D48FDF794FF20709C
:103AB0000C4A0D490D48FDF775FF607021780143F0
:103AC00001D0FDF7A1FFFEF787FF1420FCF762FD90
:103AD000E8E70000580000203E00002056000020CB
:103AE000540000203C0000203A0000203800002054
:103AF00000B5024600F00DF80346D01C00F009F8AE
:103B000043EAC003901D00F004F843EA801080B23D
:103B100000BD90F90010002902DD4FF00000704751
:103B200002DA4FF00400704790F90110002902DD1D
:103B30004FF00100704702DA4FF00500704790F92E
:103B40000200002802DD4FF00200704702DA4FF059
:103B5000060070474FF0070070470000FCF712FFA7
:103B6000FEF75EFAFEF7B4F8FEF7F2F8FEF710F98A
:103B7000FEF764F9FEF7B0F9FEF7CAF9FDF744FF66
:103B800000F048F800210848FDF7BCFC0421064875
:103B9000FDF7B8FC00210548FDF7B4FCFEF742F83C
:103BA00000F003FEFEE70000300300207803002051
:103BB00001460020842900D0C81C70472DE9F0413F
:103BC000134D20F00104002695F8240010B10020C8
:103BD000BDE8F081A87A4FF0FF3838B120402F7C43
:103BE0002874A04200D0464624B901E04046EFE7E1
:103BF000287D40B1012001F0A1F83CB100F06AFA43
:103C000020B12F74F2E7002001F098F83046DFE78A
:103C10000000002010B5FDF7D5FD00F0F1F808B167
:103C20000A2010BD782000F033FD10F0FF0F01D006
:103C3000012010BD7820FFF7C1FF10F0FF0F01D069
:103C4000022010BD642000F0E7FC10F0FF0F01D04F
:103C5000032010BDFFF7B8F910F0FF0F01D00420CA
:103C600010BD1448FFF744FFFFF7BCFA10F0FF0F38
:103C700001D0052010BD40F27310FFF77DF810F061
:103C8000FF0F01D0062010BD6420FFF713FA10F0DB
:103C9000FF0F01D0072010BD00F0DAFF08B10820A7
:103CA00010BD012000F0DEFB10F0FF00F8D009206D
:103CB00010BD00002C0000200D4A517A41B10129AD
:103CC00008D002290FD003290FD04FF0FF307047E2
:103CD000022100E004210170D17C11B1017849007A
:103CE0000170002070470821F5E71021F3E700007C
:103CF000000000200F4A517A41B1012909D0022960
:103D000011D0032912D04FF0FF3070474FF480419B
:103D100001E041F69C710180D17C11B10188490814
:103D20000180002070474FF48051F4E74FF40061A8
:103D3000F1E70000000000200B49097A39B10129A0
:103D400007D002290AD003290BD0002103E0FA2171
:103D500001E04FF4FA710180002070474FF47A714E
:103D6000F9E74FF4FA61F6E7000000200A49097A02
:103D700041B1012908D002290AD003290AD04FF005
:103D8000FF307047054900E0054901600020704799
:103D90000449FAE70449F8E7000000200000034363
:103DA0000000834233330342333383410C49C97AE1
:103DB000072913D2DFE801F01204060A0C0E1000E6
:103DC000BC2100E062210180002070472A21FAE72F
:103DD0001421F8E70A21F6E70521F4E70021F2E7CC
:103DE00000000020054991F8242012B14FF0FF3067
:103DF0007047C98901800020704700000000002042
:103E00002DE9FC41464C80208DF8000020686B466F
:103E10000122817C60680078FDF7DAFE4FF0FF3602
:103E2000002875D16420FCF7B5FB00258DF8005003
:103E300020686B460122817C60680078FDF7C8FE2F
:103E4000002865D120686B460622817D6068007875
:103E5000FDF732FE00285BD19DF805009DF80310A8
:103E6000C007400F01F0010140EA41009DF8011038
:103E70004FF0010701F00101084304D0012831D0BF
:103E8000022810D044E020686B460122C1786068A7
:103E90000078FDF711FED8BB9DF8000010F00F0070
:103EA00036D004281ED0E574FF2004F80A0F4FF620
:103EB000FF7104F8020C04F8010C6070A180A0717D
:103EC0002072A77027766576E572A572E560256198
:103ED0006561A576E576A5834FF4FA6000F0FEFAF9
:103EE000B0B901E0E774DFE7022000F019FA78B911
:103EF0002A2000F05BFB58B9322000F08DFB38B966
:103F00000020FFF75BFE18B9002000F03DFA10B169
:103F10003046BDE8FC81002000F0BAFB0020F8E745
:103F2000000000202DE9FF4FDFF898A0054685B07E
:103F30009AF82500914688464FF0FF3BC0BBB8F188
:103F4000000F35D000241FE0281B102800DD1020B2
:103F500086B208EB04073A463146204600F0F4FBEF
:103F600030BB6A463146204600F08AF800BB38462E
:103F700032466946FCF798F920B16FF0010009B0AC
:103F8000BDE8F08FA01984B2AC42DDD34FEA19200E
:103F90008DF810008DF81190DAF80000544604AB4B
:103FA000817EDAF8040002220078FDF711FE08B1E4
:103FB0005846E4E7012084F825000898E0840020B2
:103FC000DDE70000000000202DE9F84304464FF033
:103FD000FF39282844D80727284D00267CB1012026
:103FE00000F0B2FA20208DF800004FF00108012CFB
:103FF00017D0052C18D88DF8018005201FE000206F
:1040000000F0A2FA8DF800608DF8017028686B4608
:104010000222817C68680078FDF7DAFD00BB2E750E
:1040200029E08DF80160E8E7142C04D802208DF80F
:1040300001000A2003E003208DF80100142000F0A5
:10404000B5FA9DF801006B4607EB80108DF8010072
:1040500028680222817C68680078FDF7B9FD10B1FC
:104060004846BDE8F8830820A8722E7385F81480AE
:104070000020FFF7A3FD0020F3E700000000002070
:10408000F8B517000D464FF0FF341FD0104EB17A2F
:10409000E1B1010A8DF80010C0B28DF8010041199C
:1040A00070684289914211D8316800786B46097E68
:1040B0000222FDF78DFD48B93068EAB23B46417DEA
:1040C00070680078FDF7F8FC002800D02046F8BDA5
:1040D00000000020F8B5554D4FF0FF36A87A0028B3
:1040E0007ED000248DF8004028686B460122C17BF9
:1040F00068680078FDF76CFD002871D128686B4670
:104100000122417968680078FDF762FD002867D1D7
:1041100028686B460122017968680078FDF758FD30
:1041200000285DD195F82400E0B30C208DF8000044
:1041300028686B460122017968680078FDF748FD20
:10414000002871D13220FCF725FAC0208DF800003C
:10415000A87AC00702D0E0208DF8000028686B46DE
:104160000122017968680078FDF732FD00285BD1F3
:10417000687C18B102208DF8000001E08DF8004045
:1041800028686B460122C17B68680078FDF720FD36
:1041900030BB8DF8004028686B4601224179686881
:1041A00000783DE0FFE704208DF8000028686B46AA
:1041B0000122017968680078FDF70AFD80B9A87CC2
:1041C00088B9A87AC0070ED060208DF80000286852
:1041D0006B460122017968680078FDF7F9FC00E080
:1041E00022E008BB01E04020EFE73220FCF7D2F9E3
:1041F000687C18B101208DF8000001E08DF80040C6
:1042000028686B460122C17B68680078FDF7E0FCF6
:1042100050B92868054B012241796868103300784D
:10422000FDF7D6FC002800D03046F8BD0000002085
:104230002DE9F047394E82468AB096F824000F46A1
:1042400020B1002000F00EF9012500E0002507A8AC
:10425000FFF772FD06A8FFF72FFD09A8FFF7A6FDDF
:1042600008A8FFF7BFFD96F80A9096F81080002482
:10427000002239465046FFF71BFA10B1641C022C8D
:10428000F6DB022C1AD00024012203A96846FFF7AE
:104290000FFA10B1641C022CF6DB022C0ED003A91D
:1042A0003846FEF78BF9C7B269465046FFF78AFBDE
:1042B00010F0FF0F4FF0000402D002E0002403E0F2
:1042C00001240FB944F00204FF2030727072F072C2
:1042D0004FF6FF71F181B072307401203073BDF878
:1042E0001C0000F0FBF89DF8180000F019F8BDF86C
:1042F000240000F05BF9BDF8200000F08DF948467D
:1043000000F0C6F94046FFF759FC15B1012000F056
:10431000A9F80AB02046BDE8F087000000000020A0
:1043200038B5184C4FF0FF35A17A19B3022806D0E2
:10433000042806D008280ED010281BD10DE000203C
:1043400000E008208DF80000607A9DF80010B0EBC6
:10435000D10F04D005E01020F4E71820F2E7002088
:1043600038BD20686B460122C17960680078FDF78E
:104370002FFC08B1284638BD9DF80000C0086072C7
:10438000EDE7000000000020F8B5354D0446A87C9C
:10439000A04201D10020F8BD31484FF0FF366B46F6
:1043A000D0E900104FF001020979007834B3FDF72D
:1043B00083FB70BB9DF800006B4620F020008DF859
:1043C000000028680122017968680078FDF700FC88
:1043D000F8B90320FCF7DEF802208DF8000095F80C
:1043E000220078B382202BE028686B460122017DF1
:1043F00068680078FDF7ECFB58B92EE0FDF75CFB30
:1044000038B9A87AC0079DF8000003D040F020001A
:1044100002E00CE020F020008DF8000028686B46D8
:104420000122017968680078FDF7D2FB08B13046B7
:10443000F8BD0320FCF7AEF895F8220000B180200B
:104440008DF8000095F823000028CDD09DF80000DD
:1044500040F030008DF80000C6E7AC749AE7000029
:104460000000002038B51C4C94F8241081421DD067
:10447000002500B394F82500D0B1002000F05EFCC8
:104480000020FFF781FFE08C00F0C6F88DF80050A7
:1044900060686B46012200782321FDF799FB01201B
:1044A00084F8240000F04AFCFFF714FE002038BD19
:1044B0004FF0FF3038BD002000F040FC207C8DF82C
:1044C000000060686B46012200782321FDF780FB25
:1044D00084F82450E8E700000000002038B5194CAB
:1044E0004FF0FF35A17A31B3FA2809D0B0F5FA7F41
:1044F00008D0B0F57A7F0FD0B0F5FA6F1BD10DE080
:10450000002000E008208DF80000207A9DF80010BF
:10451000B0EBD10F04D005E01020F4E71820F2E74B
:10452000002038BD20686B460122817960680078E0
:10453000FDF74EFB08B1284638BD9DF80000C008C5
:104540002072EDE70000002038B5174D044695F8BD
:104550002300A04201D1002038BD0CB1302000E082
:1045600000208DF80000A87C28B19DF8000040F0E4
:1045700002008DF8000095F8220028B19DF8000097
:1045800040F080008DF8000028686B460122017D14
:1045900068680078FDF71CFB10B14FF0FF3038BDA4
:1045A00085F82340D7E700000000002038B5194CFB
:1045B0004FF0FF35A17A31B3BC2801D3012010E0C0
:1045C000622801D302200CE02A2801D3032008E04E
:1045D000142801D3042004E00A2801D3052000E0B8
:1045E00006208DF80000E07A9DF80010884201D185
:1045F000002038BD20686B46012281786068007811
:10460000FDF7E6FA08B1284638BD9DF80000E072D3
:10461000EEE7000000000020F8B51C4D04464FF006
:10462000FF37A87A28B395F8240010BB287D48B13D
:104630002CB1282C03D8E0B2FFF7C6FC24E0002000
:10464000FFF7C2FC4FF47A76042C01D2042402E076
:10465000B44200D93446B6FBF4F0401E8DF8000099
:1046600028686B460122417868680078FDF7B0FA47
:1046700008B13846F8BD9DF80000401CB6FBF0F0CC
:10468000E8814008FFF792FF0020F8BD00000020FD
:10469000F8B5044610F0700F4FF0000601D001206D
:1046A00004E014B18DF8006002E040208DF80000B5
:1046B000244D6B4601222868817C68680078FDF7EC
:1046C00087FA4FF0FF3760BB9DF8000020F04000F4
:1046D00028738DF80060600602D404208DF8000075
:1046E000A00605D49DF8000040F002008DF80000FF
:1046F000E00605D49DF8000040F001008DF80000B0
:10470000200705D49DF8000040F038008DF8000027
:1047100028686B460122C17C68680078FDF758FA6A
:1047200010B1AE723846F8BD24B1082C02D000207A
:10473000FFF70AFFAC722E753220FBF72BFF00202B
:10474000F8BD000000000020F8B517000D464FF03E
:10475000FF341FD0104EB17AE1B1010A8DF800107C
:10476000C0B28DF80100411970684289914211D898
:10477000316800786B46097E0222FDF729FA48B9B4
:104780003068EAB23B46417D70680078FDF720FA58
:10479000002800D02046F8BD0000002010B500B968
:1047A000012000F0E3FB002010BD10B500F004FC78
:1047B000002010BD7FB50D4604464169B0F90800E0
:1047C00081B1A16971B1FFF7F3F9D4E905128DE860
:1047D0000700D4E900102B46226900F0DAFC0390B0
:1047E00004B070BDFFF7E4F903A9CDE90001208A08
:1047F0002B4682B2D4E9001000F09EFC012801D0C3
:104800000020EDE70398EBE72DE9F041184E0F4645
:104810000446F5683068001D00F0E0FA38B93068E9
:1048200090F82C1001208840316981433161601C6F
:1048300007D137B13168BDE8F0410E48091D00F0DD
:1048400011BB30682C44AC424460316805D2B06B77
:10485000BDE8F041091D00F0EDBA706B091D00F0D4
:10486000E9FAB06A844200D2B462BDE8F081000087
:10487000B0000020740500202DE9F041054600F04D
:10488000FDFA2E4EB068401CB06030682C4F10B15D
:10489000706940B32DE03560B068012829D100244B
:1048A00004EB840007EB800000F0B6FA641C072CD0
:1048B000F6D323488C3000F0AFFA2148A03000F046
:1048C000ABFA1F48B43000F0A7FA1D48C83000F01A
:1048D000A3FA1B48DC3000F09FFA19488C30706353
:1048E0001430B06305E03068E96AC06A884200D8D5
:1048F0003560706A0121401C7062E86A326981404B
:104900001143316100EB800007EB8000291D00F0AE
:10491000A9FA00F0D3FA706900280CD03068E96A6F
:10492000C06A884207D207494FF080500860BFF341
:104930004F8FBFF36F8FBDE8F0810000B000002003
:104940009804002004ED00E010B5044690F85100F2
:1049500058B101280CD002280FD0502080F31188C4
:10496000BFF34F8FBFF36F8FFEE7206B00F0BAFAF3
:104970002046BDE8104000F0B5BA10BD10484FF415
:104980004061420706D0C01D0D4920F00700411AC2
:10499000C1F540610B4A00230144C2E90003083914
:1049A000183A21F0070111604B600B600B1AC0E947
:1049B000001393604FF00040536050617047000057
:1049C0008805002004010020134E144DA6F1C807ED
:1049D0004FF08058DFF8489011E000F04FFAF0688F
:1049E000C468201D00F0FAF9A868401EA860686835
:1049F000401E686000F062FA2046FFF7A5FF686875
:104A00000028EAD138680128F9D9C9F80080BFF335
:104A10004F8FBFF36F8FF2E760050020B0000020DA
:104A200004ED00E02DE9F0479A46DDE9098481466E
:104A30006FF00303206B03EB82021044089D20F00B
:104A40000706700707D0502080F31188BFF34F8FFF
:104A5000BFF36F8FFEE7002761B1002023180A5CC7
:104A600083F834200A5C12B1401C1028F6D384F875
:104A7000437001E084F83470072D00D30625E56209
:104A8000C4E91157201D00F0D2F904F1180000F01C
:104A9000CEF92461C5F107006462A061E76484F87F
:104AA000507052464946304600F0C0F82060B8F1D8
:104AB000000F01D0C8F80040BDE8F08730B51149BB
:104AC00000E011460A688242FBD34B685C188442BE
:104AD00003D1406818444860084643681C18944253
:104AE00009D1084C183C2468A24209D052681A44E3
:104AF00042600A6812680260814200D0086030BDDE
:104B00000460F9E7040100200648416B096829B1F7
:104B1000416BC968C9684968816270474FF0FF31CD
:104B2000FAE70000B000002008484068401C4FF041
:104B3000500080F3118804D0BFF34F8FBFF36F8F05
:104B4000FEE7BFF34F8FBFF36F8FFEE70C0100202E
:104B50002DE9F0410546002600F064FA324F38682E
:104B600008B9FFF70BFF786905424ED1C5B3083588
:104B700068070ED005F00700C0F10800054468077B
:104B800007D0502080F31188BFF34F8FBFF36F8F92
:104B9000FEE72DB37868854237D823491831084697
:104BA000046801E0214604466068A84202D22068F9
:104BB0000028F7D13868844227D00E682068086042
:104BC00060680836411B10290FD96019420708D0C8
:104BD000502080F31188BFF34F8FBFF36F8FFEE734
:104BE00013E041606560FFF769FF61687868401A0B
:104BF0007860BA68904200D2B860786901430020BA
:104C0000C4E90001F868401CF86000F055FB70072B
:104C100007D0502080F31188BFF34F8FBFF36F8F01
:104C2000FEE73046BDE8F081EC00002010B5031F20
:104C30004FF080741C601B1F21F001011960191FC7
:104C4000024B0B60143940380A6010BD294B000834
:104C500010B588B002A905A8FFF7EAFA072802D024
:104C6000012008B010BD6846FFF780F8059801F0F4
:104C7000DFFA00990C4601F03BFB01F09DFA05902C
:104C8000069801F0D5FA214601F032FB01F094FAC2
:104C90000690079801F0CCFA214601F029FB01F0BB
:104CA0008BFA079005A8FEF737FA01A8FFF722F85C
:104CB000BDF80400029941430291039941430391D5
:104CC0000499414302A80491FEF788F90020C8E73F
:104CD0001CB516480090002301901A464FF07E51F3
:104CE0001348FDF77BF9134C404601F081FAC6B238
:104CF000114F404601F07CFAC5B2A07901F0B0FA3C
:104D0000014642460A48FDF721F9E07901F0A8FA88
:104D1000014642460648FDF719F938684663386887
:104D200085630120FFF73AFDE7E700000000C84275
:104D3000B80200205800002030030020F8B5134CC2
:104D40000023224694F82460D2E900125D1E56B179
:104D500090B102200DE01078C97B6B460122FCF770
:104D600037FF60B90DE0A67A4EB128B1607C58B922
:104D700001208DF80000EEE78DF80030EBE72846C3
:104D8000F8BD9DF8000060740020F8BD0000002010
:104D90002DE9F04106460F4600F0DCFE041E0D46EC
:104DA00018BF0120284320F00040C0F17F6000F1CF
:104DB000E040C00F0ED0301C18BF0120384320F057
:104DC0000040C0F17F6000F1E040C00F04BF01204F
:104DD000FBF776FB20462946BDE8F081D0E9013299
:104DE00001699A60D0E901235A604A68824201D180
:104DF00082684A60002202610868401E08600868F4
:104E000070470000034B036003F15400086040202A
:104E1000106070476401002000F108014FF0FF327C
:104E2000C0E90112C16001610021016070470021E9
:104E30000161704730B50C68621C02D000F10802B5
:104E400002E0026904E01A4653681D68A542FAD9D7
:104E500053684B6099608A60516008610168491C21
:104E6000016030BD42684A6093688B609368596006
:104E7000916008610168491C01607047502080F30F
:104E80001188BFF34F8FBFF36F8F0A494868401CEA
:104E9000486001280CD10848006810F0FF0F07D0C7
:104EA000502080F31188BFF34F8FBFF36F8FFEE761
:104EB000704700000C01002004ED00E0084948683C
:104EC00028B1401E486001D180F3118870475020FE
:104ED00080F31188BFF34F8FBFF36F8FFEE70000A1
:104EE0000C01002070B500282AD0164DA0F108044E
:104EF00060686969084207D1502080F31188BFF3C8
:104F00004F8FBFF36F8FFEE722683AB1502080F3D6
:104F10001188BFF34F8FBFF36F8FFEE78843606048
:104F200000F080F860686968084468602046FFF710
:104F3000C5FD2869401C2861BDE8704000F0BCB97F
:104F400070BD0000EC0000204FF0E0200021016166
:104F5000816105494FF47A720968B1FBF2F1491E8B
:104F60004161072101617047AC00002010B50200CB
:104F700014D00F48006B38B1502080F31188BFF374
:104F80004F8FBFF36F8FFEE700F04CF80021104603
:104F9000FFF73AFC00F090F9002807D105494FF0DF
:104FA00080500860BFF34F8FBFF36F8F10BD0000BC
:104FB000B000002004ED00E010B586B0002403949A
:104FC00005AA04A903A80494FFF71CFFDDE9030167
:104FD0000094CDE9011000230EA11048059A00F0BD
:104FE000D8F80F490028C86211D0502080F31188EA
:104FF000BFF34F8FBFF36F8F4FF0FF3088620120F8
:105000004861CC6006B0BDE8104000F041B806B081
:1050100010BD000049444C4500000000C94900088B
:10502000B00000200248016B491C0163704700007A
:10503000B0000020144A106B10B10120D0617047FD
:105040000020D06110691149B0FA80F0C0F11F0052
:1050500000EB800051F820306BB101EB800000F1D3
:105060000803416849684160994201D1496841603B
:10507000C86810607047502080F31188BFF34F8FCD
:10508000BFF36F8FFEE70000B000002098040020FF
:105090001CB5264908780190FF20087008788DF823
:1050A00000009DF800009DF8002000F0F000904204
:1050B00007D0502080F31188BFF34F8FBFF36F8F5D
:1050C000FEE79DF800001A4C00F050002070072009
:1050D000A06006E0401EA0609DF8000040008DF832
:1050E00000009DF800000006A068F3D4032807D054
:1050F000502080F31188BFF34F8FBFF36F8FFEE70F
:105100004FF44070A060019808700A48016841F4AB
:1051100070010160016841F070410160FFF714FF08
:1051200000206060FBF742F800201CBD00E400E0B6
:105130000C01002020ED00E02DE9FF5F8346DDE952
:105140000E87994616468A469000FFF701FD050036
:105150001CD05420FFF7FCFC040014D00020256371
:1051600084F85100CDE90240CDE900874B46324634
:1051700051465846FFF756FC2046FFF77DFB0120BD
:1051800004B0BDE8F09F2846FFF7ACFE4FF0FF30BB
:10519000F6E7F0B585B00546DDE90B040A9EA8B137
:1051A000E4B1542700972063022084F851000020C6
:1051B000CDE9024004AF2846CDE90067FFF732FC95
:1051C0002046FFF759FB049805B0F0BD502080F34E
:1051D0001188BFF34F8FBFF36F8FFEE7502080F32E
:1051E0001188BFF34F8FBFF36F8FFEE72DE9F041BA
:1051F0002F4F0026386B28B1B869401CB861304683
:10520000BDE8F081FD686D1CFD6013D1786B00680E
:1052100038B1502080F31188BFF34F8FBFF36F8FE9
:10522000FEE7786BB96B7963B863386A401C386203
:10523000FFF76AFCB86ADFF87C80854209D3786B97
:105240000068A0B1786BC068C4686068854211D2FC
:10525000B8623868C06A00EB800158F82100012864
:1052600000D90126F8690028C9D00126C7E74FF008
:10527000FF30EDE7201DFFF7B1FDA06A18B104F182
:105280001800FFF7ABFDE06A01213A698140114344
:10529000396100EB800108EB8100211DFFF7E2FD81
:1052A000E06A3968C96A8842C9D30126C7E70000A5
:1052B000B0000020980400202DE9F0472C4D002478
:1052C0002746286B38B1FFF7D9FD286B401E2863AD
:1052D000286B40B146E0502080F31188BFF34F8F18
:1052E000BFF36F8FFEE7A86822490126D0B3A1F172
:1052F000B4098846D8F80010E9B1D8F80C00C468A1
:1053000004F11800FFF76AFD201DFFF767FDE06A52
:105310002A6906FA00F11143296100EB800109EBCB
:105320008100211DFFF79EFDE06A2968C96A884255
:10533000E0D3EE61DEE70CB1FFF7E6FBAC693CB110
:10534000FFF754FF00B1EE61641EF9D10020A8619F
:10535000E86938B10849012738070860BFF34F8F63
:10536000BFF36F8FFFF7AAFD3846BDE8F087000056
:10537000B00000204C05002004ED00E021F00042C8
:10538000A2F16052B2F5801F01F0004328BFD2F1B4
:105390007F6C0BD95FEA001C43EAC20242EB5070FB
:1053A00018BF704728BF20F001007047B2F5801F7A
:1053B000BCBF184670474FEA410C1CF5001F02D2D3
:1053C000084601F05CB870B500F0BCFA0000008936
:1053D000FFF7F6BF4FF00040A0F5800070470000D7
:1053E00010B591EA030F48BF83F0004300F1A08499
:1053F000841A71EB030C05D2121943EB0C03001B4A
:1054000061EB0C01DFF824E14FEA1154A4EB135CCB
:105410001EEA430F18BF9EEA445F73D023EA0E03CF
:10542000DCF1200E21EA045143F4801332D322FA36
:105430000CFE10EB0E0023FA0CFE41EB0E01CCF13A
:10544000200E03FA0EFE10EB0E0051F10001B1F533
:10545000801FCCF1200E32D201EB045112FA0EF271
:10546000BDE8104058BF7047401C38BF5FEA420299
:1054700018BF7047002814BF20F0010041F100015F
:105480004FEA410313F5001F38BF7047A1F1C04137
:1054900000F04EBB012A43EB0302ACF1200CDCF11F
:1054A0001F0E32BF4FF0000E23FA0CF310EB030077
:1054B00041EB0451B4EB115FD0D0A1EB045101F5E5
:1054C000801149085FEA300001EB04510ED350F11E
:1054D000000038BF12FA0EFE08D1BDE81040C9E73F
:1054E000401C38BF5FEA4202CAD1C3E7BDE81040A2
:1054F0004FEA410313F5001F38BF7047A1F1C041C7
:1055000000F016BB9EEA445F08D011EA5E0FBDE8CA
:10551000104004BF01F0004100207047BDE810407A
:1055200070B500F00FFA00BF64FBBE3E0000E0FF64
:1055300002494FF0000001F04EB800BF0000F87FB4
:105540002DE9C04130B4DFF8A0C23CEA111418BF05
:105550003CEA131400F0EC8081EA03051CEA111404
:1055600044EAD57418BF1CEA131500F0C780A4EBF9
:1055700005044FF0004545EAC12145EAC32341EA4D
:10558000505143EA525304F17F74994204F50034B8
:105590004FEAC0204FEAC22208BF904200F09C8030
:1055A0004FEA13650FF24016765D4FEA134506FB8E
:1055B00005F7C7F1807706FB07F74FEAD737A7FB58
:1055C00003687642C8F58038A7FB06CE38BFA8F13D
:1055D000010807FB08E64FF0000EA6FB028CE6FB75
:1055E00003CEDCF1000CCEF1004E38BFAEF1010E5F
:1055F000A6FB0C584FF000074FF00005E6FB0E87A6
:10560000A1FB08C6A0FB07CE16EB0E0645F1000570
:10561000E1FB076515F1E04E7EBFA4F580345FEA3B
:1056200046066D4116F1800745F100054FEA172740
:105630004FEA066647EA0567A6F1DE46B6F1805FE7
:105640004FEA15251FD9384624F0010C05EBC4712B
:10565000BCF1FE6F01EB0C1102D8F0BCBDE800817B
:1056600024425CBF01F5801E9EEAC47F02D4F0BCD8
:10567000BDE80081244238D4F0BCA1F1C041BDE8AE
:10568000004100F055BA4FEAD22242EA43524FEAB3
:10569000D323A7FB02864FEAD02040EA415007FB04
:1056A00003661EEA0E0F4FEAD12105FB026658BFC2
:1056B000A6EB0056B6EB00564FEA520E4EEAC37EFA
:1056C00018EB0E0E56EB530EBDD518EB02085E41DB
:1056D0007F1C55F10005B6E74FF480154FF0000729
:1056E0004FF000064FF00008ADE7F0BC4FF00000AF
:1056F00001F1C04101F00041BDE8008111EA0C1F39
:105700000CEA131500D00CE013EA0C1F00F0258002
:105710004FF00000F0BC81EA030101F00041BDE858
:105720000081F0BCBDE8004181EA030100F000BA4D
:10573000F0BCBDE8004170B500F004F9097EFC3E04
:1057400000F007B881EA03014FF0000001F00041CA
:10575000704781EA030100F0EBB9F0BCBDE80041FD
:105760004FF0000021497047FFFDFBF9F7F5F4F217
:10577000F0EEEDEBE9E8E6E4E3E1E0DEDDDBDAD8EC
:10578000D7D5D4D3D1D0CFCDCCCBCAC8C7C6C5C44A
:10579000C2C1C0BFBEBDBCBBBAB9B8B7B6B5B4B361
:1057A000B2B1B0AFAEADACABAAA9A8A8A7A6A5A44C
:1057B000A3A3A2A1A09F9F9E9D9C9C9B9A99999810
:1057C0009797969595949393929191908F8F8E8EB3
:1057D0008D8C8C8B8B8A8989888887878685858440
:1057E00084838382828181800000FF070000F87F2C
:1057F000DFF848C170B51CEA111E1EBF1CEA131564
:105800009EEA0C0F95EA0C0F00F06F8081EA03040A
:1058100023EA4C134EEAD47E21EA4C1141F4801164
:1058200043F48013AE44A1FB024CA0FB0365AEF130
:105830007F7E361955EB0C05A1FB034C4CF10003A0
:10584000A0FB021C16EB0C06654153F10003094254
:1058500018BF46F0010613F4007F0BD14FEA033165
:105860004FEA0530340341EA155140EA16506FF013
:1058700003020AE04FEAC3214FEAC520F40241EADD
:10588000555140EA56506FF0020202EB2E4201EBF6
:10589000025585EACE710AD05FEA440C18BF24F0A5
:1058A000004450F1000041F1000120EAD47040F2C0
:1058B000FE7C624500D270BDA84214BF4FF0804408
:1058C0004FF04044002E08BF0024BEF1806FA8BFF7
:1058D000A1F1C041BDE8704080F22A814FF0000084
:1058E00001F1C04101F0004170479EEA0C0F0CEA43
:1058F000131518BF95EA0C0F06D04FF0000081EA8F
:10590000030E0EF0004170BD00F01CF88900013E4E
:1059100000F007B800F009B84FEA430C5FEA5C5C9E
:1059200008D081EA030100F003B94FEA410C5FEAB5
:105930005C5CF6D14FF00000014970470000FF07A2
:105940000000F87F0EF1020E2EF0030E5EF8046BDD
:10595000364205D4012A43EB030515F5001F12D882
:10596000012841EB010C1CF5001F0CD80ED14FEAA9
:10597000D17C15F5001F0CEB4C0C0CF1020C08BF90
:105980004CEBD37C04E04FF0080C01E04FEAD37CF1
:105990000CEB4C0526FA05F606F00706B6F1040CEA
:1059A00006D20EEB860CBDE870404CF0010C60474F
:1059B000DFE80CF0090B02024FF000414FF000004D
:1059C000A1F5002170BD19461046012851EB0104D4
:1059D00018BFD4F5001484BF002001F0004170BD51
:1059E000DFF844C170B53CEA111418BF3CEA131546
:1059F00000F08F8011F1004F1CEA13150CEA11140E
:105A000068BF45F0050518BF11EA0C1F00F079804A
:105A10002E4621EA4C1123EA4C1341F4801143F441
:105A20008013A5F58035AC423DDD801A9941A4F57F
:105A3000803609D54042C1F1000134BFB1F1010106
:105A4000B1F1000185F0010511F4F01F08D011F447
:105A5000801FE8D1400041EB0101A4F58034F6E756
:105A600021F00041B1FA81F6202E04BFB0FA80FE89
:105A70000EF12006A6F10B06B6F1200EA4EB0644AB
:105A80000CD2C6F1200E01FA06F120FA0EF641EA18
:105A90000601CEF1200600FA06F003E000FA0EF14E
:105AA0004FF00000BFE750EA410E23D04FEA244EEA
:105AB000BEEB254F0FDB994208BF904204D00AD3BA
:105AC000520043EB0303B0E74FEA1646B6EB144F20
:105AD00008BF85F00105B4F5803401EB041181EABB
